{
	"contracts/Clase_7/libreria_codigo.sol": {
		"CalculadoraBasica": {
			"abi": [
				{
					"inputs": [
						{
							"internalType": "uint256",
							"name": "_numero",
							"type": "uint256"
						}
					],
					"name": "calcular",
					"outputs": [
						{
							"internalType": "bool",
							"name": "esNumeroPar",
							"type": "bool"
						},
						{
							"internalType": "uint256",
							"name": "numeroDoble",
							"type": "uint256"
						}
					],
					"stateMutability": "pure",
					"type": "function"
				}
			],
			"devdoc": {
				"kind": "dev",
				"methods": {},
				"version": 1
			},
			"evm": {
				"assembly": "    /* \"contracts/Clase_7/libreria_codigo.sol\":500:995  contract CalculadoraBasica {... */\n  mstore(0x40, 0x80)\n  callvalue\n  dup1\n  iszero\n  tag_1\n  jumpi\n  0x00\n  dup1\n  revert\ntag_1:\n  pop\n  dataSize(sub_0)\n  dup1\n  dataOffset(sub_0)\n  0x00\n  codecopy\n  0x00\n  return\nstop\n\nsub_0: assembly {\n        /* \"contracts/Clase_7/libreria_codigo.sol\":500:995  contract CalculadoraBasica {... */\n      mstore(0x40, 0x80)\n      callvalue\n      dup1\n      iszero\n      tag_1\n      jumpi\n      0x00\n      dup1\n      revert\n    tag_1:\n      pop\n      jumpi(tag_2, lt(calldatasize, 0x04))\n      shr(0xe0, calldataload(0x00))\n      dup1\n      0x83250f8e\n      eq\n      tag_3\n      jumpi\n    tag_2:\n      0x00\n      dup1\n      revert\n        /* \"contracts/Clase_7/libreria_codigo.sol\":710:992  function calcular(uint256 _numero) public pure returns (bool esNumeroPar, uint256 numeroDoble) {... */\n    tag_3:\n      tag_4\n      0x04\n      dup1\n      calldatasize\n      sub\n      dup2\n      add\n      swap1\n      tag_5\n      swap2\n      swap1\n      tag_6\n      jump\t// in\n    tag_5:\n      tag_7\n      jump\t// in\n    tag_4:\n      mload(0x40)\n      tag_8\n      swap3\n      swap2\n      swap1\n      tag_9\n      jump\t// in\n    tag_8:\n      mload(0x40)\n      dup1\n      swap2\n      sub\n      swap1\n      return\n    tag_7:\n        /* \"contracts/Clase_7/libreria_codigo.sol\":766:782  bool esNumeroPar */\n      0x00\n        /* \"contracts/Clase_7/libreria_codigo.sol\":784:803  uint256 numeroDoble */\n      dup1\n        /* \"contracts/Clase_7/libreria_codigo.sol\":830:845  _numero.esPar() */\n      tag_11\n        /* \"contracts/Clase_7/libreria_codigo.sol\":830:837  _numero */\n      dup4\n        /* \"contracts/Clase_7/libreria_codigo.sol\":830:843  _numero.esPar */\n      tag_12\n        /* \"contracts/Clase_7/libreria_codigo.sol\":830:845  _numero.esPar() */\n      jump\t// in\n    tag_11:\n        /* \"contracts/Clase_7/libreria_codigo.sol\":816:845  esNumeroPar = _numero.esPar() */\n      swap2\n      pop\n        /* \"contracts/Clase_7/libreria_codigo.sol\":919:937  _numero.duplicar() */\n      tag_13\n        /* \"contracts/Clase_7/libreria_codigo.sol\":919:926  _numero */\n      dup4\n        /* \"contracts/Clase_7/libreria_codigo.sol\":919:935  _numero.duplicar */\n      tag_14\n        /* \"contracts/Clase_7/libreria_codigo.sol\":919:937  _numero.duplicar() */\n      jump\t// in\n    tag_13:\n        /* \"contracts/Clase_7/libreria_codigo.sol\":905:937  numeroDoble = _numero.duplicar() */\n      swap1\n      pop\n        /* \"contracts/Clase_7/libreria_codigo.sol\":710:992  function calcular(uint256 _numero) public pure returns (bool esNumeroPar, uint256 numeroDoble) {... */\n      swap2\n      pop\n      swap2\n      jump\t// out\n        /* \"contracts/Clase_7/libreria_codigo.sol\":202:303  function esPar(uint256 numero) internal pure returns (bool) {... */\n    tag_12:\n        /* \"contracts/Clase_7/libreria_codigo.sol\":256:260  bool */\n      0x00\n        /* \"contracts/Clase_7/libreria_codigo.sol\":294:295  0 */\n      dup1\n        /* \"contracts/Clase_7/libreria_codigo.sol\":289:290  2 */\n      0x02\n        /* \"contracts/Clase_7/libreria_codigo.sol\":280:286  numero */\n      dup4\n        /* \"contracts/Clase_7/libreria_codigo.sol\":280:290  numero % 2 */\n      tag_16\n      swap2\n      swap1\n      tag_17\n      jump\t// in\n    tag_16:\n        /* \"contracts/Clase_7/libreria_codigo.sol\":280:295  numero % 2 == 0 */\n      eq\n        /* \"contracts/Clase_7/libreria_codigo.sol\":273:295  return numero % 2 == 0 */\n      swap1\n      pop\n        /* \"contracts/Clase_7/libreria_codigo.sol\":202:303  function esPar(uint256 numero) internal pure returns (bool) {... */\n      swap2\n      swap1\n      pop\n      jump\t// out\n        /* \"contracts/Clase_7/libreria_codigo.sol\":357:459  function duplicar(uint256 numero) internal pure returns (uint256) {... */\n    tag_14:\n        /* \"contracts/Clase_7/libreria_codigo.sol\":414:421  uint256 */\n      0x00\n        /* \"contracts/Clase_7/libreria_codigo.sol\":450:451  2 */\n      0x02\n        /* \"contracts/Clase_7/libreria_codigo.sol\":441:447  numero */\n      dup3\n        /* \"contracts/Clase_7/libreria_codigo.sol\":441:451  numero * 2 */\n      tag_19\n      swap2\n      swap1\n      tag_20\n      jump\t// in\n    tag_19:\n        /* \"contracts/Clase_7/libreria_codigo.sol\":434:451  return numero * 2 */\n      swap1\n      pop\n        /* \"contracts/Clase_7/libreria_codigo.sol\":357:459  function duplicar(uint256 numero) internal pure returns (uint256) {... */\n      swap2\n      swap1\n      pop\n      jump\t// out\n        /* \"#utility.yul\":88:205   */\n    tag_22:\n        /* \"#utility.yul\":197:198   */\n      0x00\n        /* \"#utility.yul\":194:195   */\n      dup1\n        /* \"#utility.yul\":187:199   */\n      revert\n        /* \"#utility.yul\":334:411   */\n    tag_24:\n        /* \"#utility.yul\":371:378   */\n      0x00\n        /* \"#utility.yul\":400:405   */\n      dup2\n        /* \"#utility.yul\":389:405   */\n      swap1\n      pop\n        /* \"#utility.yul\":334:411   */\n      swap2\n      swap1\n      pop\n      jump\t// out\n        /* \"#utility.yul\":417:539   */\n    tag_25:\n        /* \"#utility.yul\":490:514   */\n      tag_38\n        /* \"#utility.yul\":508:513   */\n      dup2\n        /* \"#utility.yul\":490:514   */\n      tag_24\n      jump\t// in\n    tag_38:\n        /* \"#utility.yul\":483:488   */\n      dup2\n        /* \"#utility.yul\":480:515   */\n      eq\n        /* \"#utility.yul\":470:533   */\n      tag_39\n      jumpi\n        /* \"#utility.yul\":529:530   */\n      0x00\n        /* \"#utility.yul\":526:527   */\n      dup1\n        /* \"#utility.yul\":519:531   */\n      revert\n        /* \"#utility.yul\":470:533   */\n    tag_39:\n        /* \"#utility.yul\":417:539   */\n      pop\n      jump\t// out\n        /* \"#utility.yul\":545:684   */\n    tag_26:\n        /* \"#utility.yul\":591:596   */\n      0x00\n        /* \"#utility.yul\":629:635   */\n      dup2\n        /* \"#utility.yul\":616:636   */\n      calldataload\n        /* \"#utility.yul\":607:636   */\n      swap1\n      pop\n        /* \"#utility.yul\":645:678   */\n      tag_41\n        /* \"#utility.yul\":672:677   */\n      dup2\n        /* \"#utility.yul\":645:678   */\n      tag_25\n      jump\t// in\n    tag_41:\n        /* \"#utility.yul\":545:684   */\n      swap3\n      swap2\n      pop\n      pop\n      jump\t// out\n        /* \"#utility.yul\":690:1019   */\n    tag_6:\n        /* \"#utility.yul\":749:755   */\n      0x00\n        /* \"#utility.yul\":798:800   */\n      0x20\n        /* \"#utility.yul\":786:795   */\n      dup3\n        /* \"#utility.yul\":777:784   */\n      dup5\n        /* \"#utility.yul\":773:796   */\n      sub\n        /* \"#utility.yul\":769:801   */\n      slt\n        /* \"#utility.yul\":766:885   */\n      iszero\n      tag_43\n      jumpi\n        /* \"#utility.yul\":804:883   */\n      tag_44\n      tag_22\n      jump\t// in\n    tag_44:\n        /* \"#utility.yul\":766:885   */\n    tag_43:\n        /* \"#utility.yul\":924:925   */\n      0x00\n        /* \"#utility.yul\":949:1002   */\n      tag_45\n        /* \"#utility.yul\":994:1001   */\n      dup5\n        /* \"#utility.yul\":985:991   */\n      dup3\n        /* \"#utility.yul\":974:983   */\n      dup6\n        /* \"#utility.yul\":970:992   */\n      add\n        /* \"#utility.yul\":949:1002   */\n      tag_26\n      jump\t// in\n    tag_45:\n        /* \"#utility.yul\":939:1002   */\n      swap2\n      pop\n        /* \"#utility.yul\":895:1012   */\n      pop\n        /* \"#utility.yul\":690:1019   */\n      swap3\n      swap2\n      pop\n      pop\n      jump\t// out\n        /* \"#utility.yul\":1025:1115   */\n    tag_27:\n        /* \"#utility.yul\":1059:1066   */\n      0x00\n        /* \"#utility.yul\":1102:1107   */\n      dup2\n        /* \"#utility.yul\":1095:1108   */\n      iszero\n        /* \"#utility.yul\":1088:1109   */\n      iszero\n        /* \"#utility.yul\":1077:1109   */\n      swap1\n      pop\n        /* \"#utility.yul\":1025:1115   */\n      swap2\n      swap1\n      pop\n      jump\t// out\n        /* \"#utility.yul\":1121:1230   */\n    tag_28:\n        /* \"#utility.yul\":1202:1223   */\n      tag_48\n        /* \"#utility.yul\":1217:1222   */\n      dup2\n        /* \"#utility.yul\":1202:1223   */\n      tag_27\n      jump\t// in\n    tag_48:\n        /* \"#utility.yul\":1197:1200   */\n      dup3\n        /* \"#utility.yul\":1190:1224   */\n      mstore\n        /* \"#utility.yul\":1121:1230   */\n      pop\n      pop\n      jump\t// out\n        /* \"#utility.yul\":1236:1354   */\n    tag_29:\n        /* \"#utility.yul\":1323:1347   */\n      tag_50\n        /* \"#utility.yul\":1341:1346   */\n      dup2\n        /* \"#utility.yul\":1323:1347   */\n      tag_24\n      jump\t// in\n    tag_50:\n        /* \"#utility.yul\":1318:1321   */\n      dup3\n        /* \"#utility.yul\":1311:1348   */\n      mstore\n        /* \"#utility.yul\":1236:1354   */\n      pop\n      pop\n      jump\t// out\n        /* \"#utility.yul\":1360:1680   */\n    tag_9:\n        /* \"#utility.yul\":1475:1479   */\n      0x00\n        /* \"#utility.yul\":1513:1515   */\n      0x40\n        /* \"#utility.yul\":1502:1511   */\n      dup3\n        /* \"#utility.yul\":1498:1516   */\n      add\n        /* \"#utility.yul\":1490:1516   */\n      swap1\n      pop\n        /* \"#utility.yul\":1526:1591   */\n      tag_52\n        /* \"#utility.yul\":1588:1589   */\n      0x00\n        /* \"#utility.yul\":1577:1586   */\n      dup4\n        /* \"#utility.yul\":1573:1590   */\n      add\n        /* \"#utility.yul\":1564:1570   */\n      dup6\n        /* \"#utility.yul\":1526:1591   */\n      tag_28\n      jump\t// in\n    tag_52:\n        /* \"#utility.yul\":1601:1673   */\n      tag_53\n        /* \"#utility.yul\":1669:1671   */\n      0x20\n        /* \"#utility.yul\":1658:1667   */\n      dup4\n        /* \"#utility.yul\":1654:1672   */\n      add\n        /* \"#utility.yul\":1645:1651   */\n      dup5\n        /* \"#utility.yul\":1601:1673   */\n      tag_29\n      jump\t// in\n    tag_53:\n        /* \"#utility.yul\":1360:1680   */\n      swap4\n      swap3\n      pop\n      pop\n      pop\n      jump\t// out\n        /* \"#utility.yul\":1686:1866   */\n    tag_30:\n        /* \"#utility.yul\":1734:1811   */\n      0x4e487b7100000000000000000000000000000000000000000000000000000000\n        /* \"#utility.yul\":1731:1732   */\n      0x00\n        /* \"#utility.yul\":1724:1812   */\n      mstore\n        /* \"#utility.yul\":1831:1835   */\n      0x12\n        /* \"#utility.yul\":1828:1829   */\n      0x04\n        /* \"#utility.yul\":1821:1836   */\n      mstore\n        /* \"#utility.yul\":1855:1859   */\n      0x24\n        /* \"#utility.yul\":1852:1853   */\n      0x00\n        /* \"#utility.yul\":1845:1860   */\n      revert\n        /* \"#utility.yul\":1872:2048   */\n    tag_17:\n        /* \"#utility.yul\":1904:1905   */\n      0x00\n        /* \"#utility.yul\":1921:1941   */\n      tag_56\n        /* \"#utility.yul\":1939:1940   */\n      dup3\n        /* \"#utility.yul\":1921:1941   */\n      tag_24\n      jump\t// in\n    tag_56:\n        /* \"#utility.yul\":1916:1941   */\n      swap2\n      pop\n        /* \"#utility.yul\":1955:1975   */\n      tag_57\n        /* \"#utility.yul\":1973:1974   */\n      dup4\n        /* \"#utility.yul\":1955:1975   */\n      tag_24\n      jump\t// in\n    tag_57:\n        /* \"#utility.yul\":1950:1975   */\n      swap3\n      pop\n        /* \"#utility.yul\":1994:1995   */\n      dup3\n        /* \"#utility.yul\":1984:2019   */\n      tag_58\n      jumpi\n        /* \"#utility.yul\":1999:2017   */\n      tag_59\n      tag_30\n      jump\t// in\n    tag_59:\n        /* \"#utility.yul\":1984:2019   */\n    tag_58:\n        /* \"#utility.yul\":2040:2041   */\n      dup3\n        /* \"#utility.yul\":2037:2038   */\n      dup3\n        /* \"#utility.yul\":2033:2042   */\n      mod\n        /* \"#utility.yul\":2028:2042   */\n      swap1\n      pop\n        /* \"#utility.yul\":1872:2048   */\n      swap3\n      swap2\n      pop\n      pop\n      jump\t// out\n        /* \"#utility.yul\":2054:2234   */\n    tag_31:\n        /* \"#utility.yul\":2102:2179   */\n      0x4e487b7100000000000000000000000000000000000000000000000000000000\n        /* \"#utility.yul\":2099:2100   */\n      0x00\n        /* \"#utility.yul\":2092:2180   */\n      mstore\n        /* \"#utility.yul\":2199:2203   */\n      0x11\n        /* \"#utility.yul\":2196:2197   */\n      0x04\n        /* \"#utility.yul\":2189:2204   */\n      mstore\n        /* \"#utility.yul\":2223:2227   */\n      0x24\n        /* \"#utility.yul\":2220:2221   */\n      0x00\n        /* \"#utility.yul\":2213:2228   */\n      revert\n        /* \"#utility.yul\":2240:2650   */\n    tag_20:\n        /* \"#utility.yul\":2280:2287   */\n      0x00\n        /* \"#utility.yul\":2303:2323   */\n      tag_62\n        /* \"#utility.yul\":2321:2322   */\n      dup3\n        /* \"#utility.yul\":2303:2323   */\n      tag_24\n      jump\t// in\n    tag_62:\n        /* \"#utility.yul\":2298:2323   */\n      swap2\n      pop\n        /* \"#utility.yul\":2337:2357   */\n      tag_63\n        /* \"#utility.yul\":2355:2356   */\n      dup4\n        /* \"#utility.yul\":2337:2357   */\n      tag_24\n      jump\t// in\n    tag_63:\n        /* \"#utility.yul\":2332:2357   */\n      swap3\n      pop\n        /* \"#utility.yul\":2392:2393   */\n      dup3\n        /* \"#utility.yul\":2389:2390   */\n      dup3\n        /* \"#utility.yul\":2385:2394   */\n      mul\n        /* \"#utility.yul\":2414:2444   */\n      tag_64\n        /* \"#utility.yul\":2432:2443   */\n      dup2\n        /* \"#utility.yul\":2414:2444   */\n      tag_24\n      jump\t// in\n    tag_64:\n        /* \"#utility.yul\":2403:2444   */\n      swap2\n      pop\n        /* \"#utility.yul\":2593:2594   */\n      dup3\n        /* \"#utility.yul\":2584:2591   */\n      dup3\n        /* \"#utility.yul\":2580:2595   */\n      div\n        /* \"#utility.yul\":2577:2578   */\n      dup5\n        /* \"#utility.yul\":2574:2596   */\n      eq\n        /* \"#utility.yul\":2554:2555   */\n      dup4\n        /* \"#utility.yul\":2547:2556   */\n      iszero\n        /* \"#utility.yul\":2527:2610   */\n      or\n        /* \"#utility.yul\":2504:2643   */\n      tag_65\n      jumpi\n        /* \"#utility.yul\":2623:2641   */\n      tag_66\n      tag_31\n      jump\t// in\n    tag_66:\n        /* \"#utility.yul\":2504:2643   */\n    tag_65:\n        /* \"#utility.yul\":2288:2650   */\n      pop\n        /* \"#utility.yul\":2240:2650   */\n      swap3\n      swap2\n      pop\n      pop\n      jump\t// out\n\n    auxdata: 0xa264697066735822122062f9e836eacd0d0491d1cc856ac6026c4e0d69a81180d0a5f0f666557120745064736f6c634300081a0033\n}\n",
				"bytecode": {
					"linkReferences": {},
					"object": "6080604052348015600e575f80fd5b5061025a8061001c5f395ff3fe608060405234801561000f575f80fd5b5060043610610029575f3560e01c806383250f8e1461002d575b5f80fd5b610047600480360381019061004291906100de565b61005e565b604051610055929190610132565b60405180910390f35b5f806100698361007b565b915061007483610092565b9050915091565b5f8060028361008a9190610186565b149050919050565b5f6002826100a091906101e3565b9050919050565b5f80fd5b5f819050919050565b6100bd816100ab565b81146100c7575f80fd5b50565b5f813590506100d8816100b4565b92915050565b5f602082840312156100f3576100f26100a7565b5b5f610100848285016100ca565b91505092915050565b5f8115159050919050565b61011d81610109565b82525050565b61012c816100ab565b82525050565b5f6040820190506101455f830185610114565b6101526020830184610123565b9392505050565b7f4e487b71000000000000000000000000000000000000000000000000000000005f52601260045260245ffd5b5f610190826100ab565b915061019b836100ab565b9250826101ab576101aa610159565b5b828206905092915050565b7f4e487b71000000000000000000000000000000000000000000000000000000005f52601160045260245ffd5b5f6101ed826100ab565b91506101f8836100ab565b9250828202610206816100ab565b9150828204841483151761021d5761021c6101b6565b5b509291505056fea264697066735822122062f9e836eacd0d0491d1cc856ac6026c4e0d69a81180d0a5f0f666557120745064736f6c634300081a0033",
					"opcodes": "PUSH1 0x80 PUSH1 0x40 MSTORE CALLVALUE DUP1 ISZERO PUSH1 0xE JUMPI PUSH0 DUP1 REVERT JUMPDEST POP PUSH2 0x25A DUP1 PUSH2 0x1C PUSH0 CODECOPY PUSH0 RETURN INVALID PUSH1 0x80 PUSH1 0x40 MSTORE CALLVALUE DUP1 ISZERO PUSH2 0xF JUMPI PUSH0 DUP1 REVERT JUMPDEST POP PUSH1 0x4 CALLDATASIZE LT PUSH2 0x29 JUMPI PUSH0 CALLDATALOAD PUSH1 0xE0 SHR DUP1 PUSH4 0x83250F8E EQ PUSH2 0x2D JUMPI JUMPDEST PUSH0 DUP1 REVERT JUMPDEST PUSH2 0x47 PUSH1 0x4 DUP1 CALLDATASIZE SUB DUP2 ADD SWAP1 PUSH2 0x42 SWAP2 SWAP1 PUSH2 0xDE JUMP JUMPDEST PUSH2 0x5E JUMP JUMPDEST PUSH1 0x40 MLOAD PUSH2 0x55 SWAP3 SWAP2 SWAP1 PUSH2 0x132 JUMP JUMPDEST PUSH1 0x40 MLOAD DUP1 SWAP2 SUB SWAP1 RETURN JUMPDEST PUSH0 DUP1 PUSH2 0x69 DUP4 PUSH2 0x7B JUMP JUMPDEST SWAP2 POP PUSH2 0x74 DUP4 PUSH2 0x92 JUMP JUMPDEST SWAP1 POP SWAP2 POP SWAP2 JUMP JUMPDEST PUSH0 DUP1 PUSH1 0x2 DUP4 PUSH2 0x8A SWAP2 SWAP1 PUSH2 0x186 JUMP JUMPDEST EQ SWAP1 POP SWAP2 SWAP1 POP JUMP JUMPDEST PUSH0 PUSH1 0x2 DUP3 PUSH2 0xA0 SWAP2 SWAP1 PUSH2 0x1E3 JUMP JUMPDEST SWAP1 POP SWAP2 SWAP1 POP JUMP JUMPDEST PUSH0 DUP1 REVERT JUMPDEST PUSH0 DUP2 SWAP1 POP SWAP2 SWAP1 POP JUMP JUMPDEST PUSH2 0xBD DUP2 PUSH2 0xAB JUMP JUMPDEST DUP2 EQ PUSH2 0xC7 JUMPI PUSH0 DUP1 REVERT JUMPDEST POP JUMP JUMPDEST PUSH0 DUP2 CALLDATALOAD SWAP1 POP PUSH2 0xD8 DUP2 PUSH2 0xB4 JUMP JUMPDEST SWAP3 SWAP2 POP POP JUMP JUMPDEST PUSH0 PUSH1 0x20 DUP3 DUP5 SUB SLT ISZERO PUSH2 0xF3 JUMPI PUSH2 0xF2 PUSH2 0xA7 JUMP JUMPDEST JUMPDEST PUSH0 PUSH2 0x100 DUP5 DUP3 DUP6 ADD PUSH2 0xCA JUMP JUMPDEST SWAP2 POP POP SWAP3 SWAP2 POP POP JUMP JUMPDEST PUSH0 DUP2 ISZERO ISZERO SWAP1 POP SWAP2 SWAP1 POP JUMP JUMPDEST PUSH2 0x11D DUP2 PUSH2 0x109 JUMP JUMPDEST DUP3 MSTORE POP POP JUMP JUMPDEST PUSH2 0x12C DUP2 PUSH2 0xAB JUMP JUMPDEST DUP3 MSTORE POP POP JUMP JUMPDEST PUSH0 PUSH1 0x40 DUP3 ADD SWAP1 POP PUSH2 0x145 PUSH0 DUP4 ADD DUP6 PUSH2 0x114 JUMP JUMPDEST PUSH2 0x152 PUSH1 0x20 DUP4 ADD DUP5 PUSH2 0x123 JUMP JUMPDEST SWAP4 SWAP3 POP POP POP JUMP JUMPDEST PUSH32 0x4E487B7100000000000000000000000000000000000000000000000000000000 PUSH0 MSTORE PUSH1 0x12 PUSH1 0x4 MSTORE PUSH1 0x24 PUSH0 REVERT JUMPDEST PUSH0 PUSH2 0x190 DUP3 PUSH2 0xAB JUMP JUMPDEST SWAP2 POP PUSH2 0x19B DUP4 PUSH2 0xAB JUMP JUMPDEST SWAP3 POP DUP3 PUSH2 0x1AB JUMPI PUSH2 0x1AA PUSH2 0x159 JUMP JUMPDEST JUMPDEST DUP3 DUP3 MOD SWAP1 POP SWAP3 SWAP2 POP POP JUMP JUMPDEST PUSH32 0x4E487B7100000000000000000000000000000000000000000000000000000000 PUSH0 MSTORE PUSH1 0x11 PUSH1 0x4 MSTORE PUSH1 0x24 PUSH0 REVERT JUMPDEST PUSH0 PUSH2 0x1ED DUP3 PUSH2 0xAB JUMP JUMPDEST SWAP2 POP PUSH2 0x1F8 DUP4 PUSH2 0xAB JUMP JUMPDEST SWAP3 POP DUP3 DUP3 MUL PUSH2 0x206 DUP2 PUSH2 0xAB JUMP JUMPDEST SWAP2 POP DUP3 DUP3 DIV DUP5 EQ DUP4 ISZERO OR PUSH2 0x21D JUMPI PUSH2 0x21C PUSH2 0x1B6 JUMP JUMPDEST JUMPDEST POP SWAP3 SWAP2 POP POP JUMP INVALID LOG2 PUSH5 0x6970667358 0x22 SLT KECCAK256 PUSH3 0xF9E836 0xEA 0xCD 0xD DIV SWAP2 0xD1 0xCC DUP6 PUSH11 0xC6026C4E0D69A81180D0A5 CREATE 0xF6 PUSH7 0x55712074506473 PUSH16 0x6C634300081A00330000000000000000 "
				},
				"gasEstimates": {
					"creation": {
						"codeDepositCost": "120400",
						"executionCost": "163",
						"totalCost": "120563"
					},
					"external": {
						"calcular(uint256)": "infinite"
					}
				},
				"methodIdentifiers": {
					"calcular(uint256)": "83250f8e"
				}
			},
			"storageLayout": {
				"storage": [],
				"types": null
			},
			"userdoc": {
				"kind": "user",
				"methods": {},
				"version": 1
			}
		}
	}
}